:100000000C945D000C9485000C9485000C94850084
:100010000C9485000C9485000C9485000C9485004C
:100020000C9485000C9485000C9485000C9485003C
:100030000C9485000C9485000C9483030C9453035A
:100040000C9406030C9485000C94D4020C94AE021C
:100050000C9485000C9485000C9485000C9485000C
:100060000C9485000C94850000000008000201003B
:100070000003040700000000000000000000000072
:10008000250028002B0000000000240027002A0083
:10009000040404040404040402020202020203032E
:1000A0000303030301020408102040800102040836
:1000B0001020010204081020DC0411241FBECFEF21
:1000C000D8E0DEBFCDBF11E0A0E0B1E0EEE5FEE09C
:1000D00002C005900D92AA35B107D9F722E0AAE532
:1000E000B1E001C01D92A836B207E1F710E0CDE5FE
:1000F000D0E004C02197FE010E942707CC35D1072C
:10010000C9F70E94B3030C942D070C94000090E0F3
:10011000FC01EC55FF4F249180579F4FFC018491C7
:10012000882399F090E0880F991FFC01EA57FF4F50
:10013000A591B491FC01E458FF4F859194918FB73C
:10014000F894EC91E22BEC938FBF08952F923F929D
:100150004F925F926F927F928F929F92AF92BF92D7
:10016000CF92DF92EF92FF920F931F93CF93DF9383
:1001700000D000D0CDB7DEB71B017C01B12CA12C83
:1001800067012CE0C20ED11C88E592E09A83898336
:10019000470198E1890E911C10E000E01C821B824F
:1001A000F60141905190619071906F012B813C81DB
:1001B000B901330F880B990B0E94FE05A301920130
:1001C0000E945A050E94C6057C836B83E981FA81EF
:1001D00061917191FA83E983745090E080E00E940C
:1001E000FC05A30192010E948F062B013C0120E037
:1001F00030E0A9010E948A0620E030E040E05FE3A1
:1002000087FD4AC0C301B2010E945A050E94C6057B
:10021000060F171F8C149D0419F617FF42C021E02A
:1002200030E0F70133872287D80117FF03C0B1956B
:10023000A195B1092FEF30E00E9420072B813C816E
:10024000322F2227330F330F032E000C440B550B94
:100250000E940905F70131872087FFEFAF1ABF0A17
:1002600076012A143B0409F08BCF0F900F900F906A
:100270000F90DF91CF911F910F91FF90EF90DF9042
:10028000CF90BF90AF909F908F907F906F905F9036
:100290004F903F902F900895C301B2010E945905DD
:1002A000B5CFF70113861286BFCFAF92BF92CF9220
:1002B000DF92EF92FF920F931F93CF93DF936C0126
:1002C0007B018B01040F151FEB015E01AE18BF0807
:1002D000C017D10759F06991D601ED91FC910190B9
:1002E000F081E02DC6010995892B79F7C501DF91D1
:1002F000CF911F910F91FF90EF90DF90CF90BF9023
:10030000AF900895FC01538D448D252F30E0842F4C
:1003100090E0821B930B541710F0CF96089501972D
:100320000895FC01918D828D981761F0A28DAE0F1A
:10033000BF2FB11D5D968C91928D9F5F9F73928FA1
:1003400090E008958FEF9FEF0895FC01918D828DCD
:10035000981731F0828DE80FF11D858D90E008959A
:100360008FEF9FEF0895FC01918D228D892F90E0F2
:10037000805C9F4F821B91098F739927089582E6B5
:1003800091E00E94B30121E0892B09F420E0822F43
:10039000089580E090E0892B29F00E94BF0181112F
:1003A0000C9400000895FC01A48DA80FB92FB11D75
:1003B000A35ABF4F2C91848D90E001968F7399279B
:1003C000848FA689B7892C93A089B1898C91837079
:1003D00080648C93938D848D981306C00288F38972
:1003E000E02D80818F7D80830895EF92FF920F939F
:1003F0001F93CF93DF93EC0181E0888F9B8D8C8DD1
:1004000098131AC0E889F989808185FF15C09FB7C4
:10041000F894EE89FF896083E889F9898081837087
:10042000806480839FBF81E090E0DF91CF911F9136
:100430000F91FF90EF900895F62E0B8D10E00F5F57
:100440001F4F0F731127E02E8C8D8E110CC00FB62D
:1004500007FCFACFE889F989808185FFF5CFCE01C5
:100460000E94D301F1CFEB8DEC0FFD2FF11DE35A6C
:10047000FF4FF0829FB7F8940B8FEA89FB89808148
:100480008062CFCFCF93DF93EC01888D8823B9F0C2
:10049000AA89BB89E889F9898C9185FD03C080818F
:1004A00086FD0DC00FB607FCF7CF8C9185FFF2CF0C
:1004B000808185FFEDCFCE010E94D301E9CFDF918E
:1004C000CF91089590E0FC01E859FF4F2491FC0181
:1004D000EC55FF4F3491FC01E057FF4FE491EE23C0
:1004E000C9F0222339F0233001F1A8F4213019F1A9
:1004F000223029F1F0E0EE0FFF1FE458FF4FA591E5
:10050000B4918FB7F894EC91611126C030953E23D9
:100510003C938FBF08952730A9F02830C9F02430CC
:1005200049F7809180008F7D03C0809180008F7794
:1005300080938000DFCF84B58F7784BDDBCF84B517
:100540008F7DFBCF8091B0008F778093B000D2CFAA
:100550008091B0008F7DF9CF3E2BDACF1F920F92A2
:100560000FB60F9211242F933F934F935F936F9386
:100570007F938F939F93AF93BF93EF93FF9382E605
:1005800091E00E94D301FF91EF91BF91AF919F91B4
:100590008F917F916F915F914F913F912F910F902C
:1005A0000FBE0F901F9018951F920F920FB60F92CB
:1005B00011242F938F939F93EF93FF93E0917201F8
:1005C000F09173018081E0917801F091790182FDD1
:1005D0001BC0908180917B018F5F8F7320917C0184
:1005E000821741F0E0917B01F0E0EE59FE4F958FCC
:1005F00080937B01FF91EF919F918F912F910F90AD
:100600000FBE0F901F9018958081F4CF1F920F920C
:100610000FB60F9211242F933F934F935F936F93D5
:100620007F938F939F93AF93BF93CF93DF93EF937A
:10063000FF938091FF018F5F8093FF01811105C0BF
:1006400061E0809100020E946202C8E1D2E08885E8
:1006500099851816190604F58A859B8560E0892B13
:1006600001F588810E946202689682E0C834D8074A
:1006700071F7FF91EF91DF91CF91BF91AF919F9172
:100680008F917F916F915F914F913F912F910F903B
:100690000FBE0F901F90189561E088810E94620242
:1006A00061E08C81DFCF1F920F920FB60F92112461
:1006B0002F933F934F935F936F937F938F939F936A
:1006C000AF93BF93CF93DF93EF93FF93C8E1D2E053
:1006D00061E0888D0E94620261E08C8D0E9462025E
:1006E000FF91EF91DF91CF91BF91AF919F918F914A
:1006F0007F916F915F914F913F912F910F900FBE1E
:100700000F901F9018951F920F920FB60F92112401
:100710002F933F934F935F936F937F938F939F9309
:10072000AF93BF93CF93DF93EF93FF93C8E1D2E0F2
:1007300061E088810E94620261E08C810E94620215
:10074000FF91EF91DF91CF91BF91AF919F918F91E9
:100750007F916F915F914F913F912F910F900FBEBD
:100760000F901F901895789484B5826084BD84B5ED
:10077000816084BD85B5826085BD85B5816085BD9C
:1007800080916E00816080936E0010928100809154
:1007900081008260809381008091810081608093DC
:1007A0008100809180008160809380008091B10001
:1007B00084608093B1008091B00081608093B0002C
:1007C00080917A00846080937A0080917A008260C0
:1007D00080937A0080917A008E7F80937A00809156
:1007E0007A00806880937A001092C100F89414BC5B
:1007F00015BC16BC8CE787BD84B5826084BD809132
:100800006E00826080936E0088E1E0E0F1E0A8E194
:10081000B2E001900D928A95E1F788E1E8E1F1E01C
:10082000A0E3B2E001900D928A95E1F788E1E0E360
:10083000F1E0A0E0B2E001900D928A95E1F780919D
:1008400018020E94870080911A020E9487008091FE
:100850001C020E94870080911E020E9487008091E6
:1008600030020E948700809132020E9487008091AE
:1008700034020E948700809136020E94870078949B
:1008800008E412E070E0E72E70E0F72E82E691E0D7
:100890000E94B30140977CF1C8E4D2E06E0182E689
:1008A00091E00E949101F60181936F01F8E5CF1666
:1008B000F2E0DF06A1F72A81822F220F990B382F51
:1008C0002227280F391FC90180E29802812D990B38
:1008D00011248F709927893091056CF4880F991F26
:1008E000FC01E85AFD4F377031832083229682E065
:1008F000C635D80701F762E070E088E192E00E9417
:10090000A60061E070E080E092E00E94A600C8E1ED
:10091000D2E0C8809A80DC808E80A884B9848A85E1
:100920009B850097B1F560E0892D0E94620261E02D
:100930008D2D0E94620261E0882D0E94620261E0BA
:10094000B7FE60E08C2D0E94620268960C171D07AE
:1009500001F72091FF018091080290910902281768
:1009600019062CF060E0809100020E9462028091E2
:10097000200287BD8091380288BDE114F10409F49A
:1009800085CF0E94BF01882309F480CF0E94000018
:100990007DCF0197D1F661E08C2D0E94620260E06C
:1009A000882D0E94620261E0892D0E94620261E04E
:1009B000B7FE60E08D2DC7CFE2E6F1E01382128230
:1009C00088EE93E0A0E0B0E084839583A683B783AC
:1009D0008CE491E09183808385EC90E09587848717
:1009E00084EC90E09787868780EC90E0918B808BF9
:1009F00081EC90E0938B828B82EC90E0958B848BE2
:100A000086EC90E0978B868B118E128E138E148E4F
:100A10000895052E97FB1EF400940E94200557FDB3
:100A200007D00E94280507FC03D04EF40C94200543
:100A300050954095309521953F4F4F4F5F4F08950A
:100A400090958095709561957F4F8F4F9F4F08953A
:100A5000A1E21A2EAA1BBB1BFD010DC0AA1FBB1FC2
:100A6000EE1FFF1FA217B307E407F50720F0A21B34
:100A7000B30BE40BF50B661F771F881F991F1A94A1
:100A800069F760957095809590959B01AC01BD01CB
:100A9000CF010895A29FB001B39FC001A39F700D25
:100AA000811D1124911DB29F700D811D1124911D76
:100AB00008955058BB27AA270E9471050C94500630
:100AC0000E94420638F00E94490620F039F49F3F08
:100AD00019F426F40C943F060EF4E095E7FB0C9411
:100AE0003906E92F0E94610658F3BA1762077307A7
:100AF0008407950720F079F4A6F50C9483060EF48C
:100B0000E0950B2EBA2FA02D0B01B90190010C011D
:100B1000CA01A0011124FF27591B99F0593F50F435
:100B2000503E68F11A16F040A22F232F342F44278D
:100B3000585FF3CF469537952795A795F040539585
:100B4000C9F77EF41F16BA0B620B730B840BBAF055
:100B50009150A1F0FF0FBB1F661F771F881FC2F7C0
:100B60000EC0BA0F621F731F841F48F487957795D4
:100B70006795B795F7959E3F08F0B0CF9395880F8E
:100B800008F09927EE0F9795879508950E94CD0557
:100B90006894B1110C94840608950E94690688F047
:100BA0009F5798F0B92F9927B751B0F0E1F0660F31
:100BB000771F881F991F1AF0BA95C9F714C0B13072
:100BC00091F00E948306B1E008950C948306672F8C
:100BD000782F8827B85F39F0B93FCCF386957795A1
:100BE0006795B395D9F73EF490958095709561958A
:100BF0007F4F8F4F9F4F0895E89409C097FB3EF4B5
:100C000090958095709561957F4F8F4F9F4F992359
:100C1000A9F0F92F96E9BB279395F69587957795D7
:100C20006795B795F111F8CFFAF4BB0F11F460FF97
:100C30001BC06F5F7F4F8F4F9F4F16C0882311F0EF
:100C400096E911C0772321F09EE8872F762F05C003
:100C5000662371F096E8862F70E060E02AF09A959E
:100C6000660F771F881FDAF7880F9695879597F993
:100C7000089597F99F6780E870E060E008959FEF1E
:100C800080EC089500240A94161617061806090623
:100C9000089500240A9412161306140605060895F2
:100CA000092E0394000C11F4882352F0BB0F40F47A
:100CB000BF2B11F460FF04C06F5F7F4F8F4F9F4FBA
:100CC000089557FD9058440F551F59F05F3F71F03C
:100CD0004795880F97FB991F61F09F3F79F08795A3
:100CE0000895121613061406551FF2CF4695F1DF2C
:100CF00008C0161617061806991FF1CF86957105BC
:100D0000610508940895E894BB2766277727CB01EF
:100D100097F908950E94FC0608F48FEF08950E9449
:100D2000A2060C9450060E94420638F00E94490622
:100D300020F0952311F00C9439060C943F061124F1
:100D40000C9484060E94610670F3959FC1F3950F81
:100D500050E0551F629FF001729FBB27F00DB11D3F
:100D6000639FAA27F00DB11DAA1F649F6627B00DCF
:100D7000A11D661F829F2227B00DA11D621F739FB8
:100D8000B00DA11D621F839FA00D611D221F749FC6
:100D90003327A00D611D231F849F600D211D822F0D
:100DA000762F6A2F11249F5750409AF0F1F0882334
:100DB0004AF0EE0FFF1FBB1F661F771F881F915061
:100DC0005040A9F79E3F510580F00C9439060C94D1
:100DD00084065F3FE4F3983ED4F386957795679554
:100DE000B795F795E7959F5FC1F7FE2B880F911D8B
:100DF0009695879597F90895990F0008550FAA0BB6
:100E0000E0E8FEEF16161706E807F907C0F012161D
:100E10001306E407F50798F0621B730B840B950B20
:100E200039F40A2661F0232B242B252B21F4089575
:100E30000A2609F4A140A6958FEF811D811D089512
:100E40000E944A05B7FF0895821B930B0895EE0F89
:0E0E5000FF1F0590F491E02D0994F894FFCF58
:100E5E0007000A0002000900000000000000803FA9
:100E6E000000803F000000000600040005000300A3
:100E7E0000000000000080BF000080BF00000000E6
:100E8E00080000000000000000000000000000004C
:100E9E00000000000000803F00000000F501550139
:0A0EAE0082014202B3019101A50187
:00000001FF
